:020000020000FC
:100000000E945A000FEF05B90BB903B119B1009363
:100010000001109301010E9413000E943B0000E0C8
:100020000E946300F2CF0F931F932F933F934F9340
:100030005F93F0E0E0E7B1E0A2E0009100011091F1
:10004000010143E0552725913591021B130B10F058
:100050005395FBCF020F131F5D9355274A9599F7D0
:100060000C935F914F913F912F911F910F910895A4
:10007000E80364000A000F931F93B1E0A2E0D1E00F
:10008000C6E014E00D910E944B0009931A95D1F738
:100090001F910F910895F0E0E4EAE00F0027F01FB0
:1000A000049108953F065B4F666D7D077F6F777CF7
:1000B000395E79710FE701B9009502B90FE007B910
:1000C000009508B908951F932F933F93B1E0A6E0E0
:1000D00014E02EEF3FEF38B93D91011709F4306875
:1000E00032B928B90E947E000894221F1A9591F710
:1000F0003FEF38B93F912F911F9108950F930FEF64
:080100000A95F1F70F91089533
:00000001FF
