:020000020000FC
:1000000004E00EBF0FEF0DBF0E9491000E94BB00E5
:1000100003E004B9009505B9009100010E94C000F9
:1000200010910001011719F0103109F001C061C0F1
:10003000203041F0213061F02230A1F0233001F175
:10004000243081F110930B0110930301239551C0CB
:1000500010930C0100910B01009304011093030114
:10006000239547C010930D0100910B0100930501EA
:1000700000910C010093040110930301239539C0F2
:1000800010930E0100910B010093060100910C01E9
:100090000093050100910D010093040110930301E9
:1000A000239527C022271D3359F0222700270093CC
:1000B000030100930401009305010093060119C098
:1000C000B1E0ABE0F0E0EEEF24E005911D91011707
:1000D00049F42A95D1F72998289A0E9481002898F6
:1000E0002998E3CF2898299A0E9481002898299876
:1000F000DCCF0E942B0100270E949A008DCF0403C1
:1001000002010F931F932F9324E01FEF0FEF0A9527
:10011000F1F71A95D9F72A95C1F72F911F910F91F1
:1001200008950FE701B9009502B90FE007B90095EE
:1001300008B908951F932F933F93B1E0A7E014E00F
:100140002EEF3FEF38B93D91011709F4306832B90D
:1001500028B90E94B5000894221F1A9591F73FEF25
:1001600038B93F912F911F9108950F930FEF0A9582
:10017000F1F70F9108950FE00AB900950BB90895B2
:100180000F931F93EF93FF9310E10EEF0BB94C9B6E
:1001900010E04D9B11E04E9B12E04F9B13E00DEFE2
:1001A0000BB94C9B14E04D9B15E04E9B16E04F9B0A
:1001B00017E00BE70BB94C9B18E04D9B19E04E9BE9
:1001C0001AE04F9B1BE007EF0BB94C9B1CE04D9BCB
:1001D0001DE04E9B1EE04F9B1FE0F1E0E4EFE10FBE
:1001E0001127F11F149110930001FF91EF911F91BE
:1001F0000F910895070809410405064201020343CF
:100200002A003D4410000F931F932F933F934F9369
:100210005F93F2E0E0E5B1E0A3E00091010110910D
:10022000020143E0552725913591021B130B10F075
:100230005395FBCF020F131F5D9355274A9599F7EE
:100240000C935F914F913F912F911F910F910895C2
:10025000E80364000A000F931F93B1E0A3E0D1E02C
:10026000C7E014E00D910E943B0109931A95D1F764
:100270001F910F910895F2E0E4E8E00F0027F01FCE
:10028000049108953F065B4F666D7D077F6F777C15
:04029000395E7971E9
:00000001FF
