:020000020000FC
:1000000004E00EBF0FEF0DBF0E94AA000E941B006C
:10001000009100010E94200040910001041721F08E
:10002000403011F0409301010E9463000E948B0058
:100030000E94B300EDCF0FE00AB900950BB9089507
:100040000F931F93EF93FF9310E10EEF0BB94C9BAF
:1000500010E04D9B11E04E9B12E04F9B13E00DEF23
:100060000BB94C9B14E04D9B15E04E9B16E04F9B4B
:1000700017E00BE70BB94C9B18E04D9B19E04E9B2A
:100080001AE04F9B1BE007EF0BB94C9B1CE04D9B0C
:100090001DE04E9B1EE04F9B1FE0F0E0E4EBE10F04
:1000A0001127F11F149110930001FF91EF911F91FF
:1000B0000F9108950102030405060708090A0B0CB5
:1000C0000D0E0F1000000F931F932F933F934F932C
:1000D0005F93F1E0E0E1B1E0A3E000910101109154
:1000E000020143E0552725913591021B130B10F0B7
:1000F0005395FBCF020F131F5D9355274A9599F730
:100100000C935F914F913F912F911F910F91089503
:10011000E80364000A000F931F93B1E0A3E0D1E06D
:10012000C7E014E00D910E949B0009931A95D1F746
:100130001F910F910895F1E0E4E4E00F0027F01F14
:10014000049108953F065B4F666D7D077F6F777C56
:10015000395E79710FE701B9009502B90FE007B96F
:10016000009508B908951F932F933F93B1E0A7E03E
:1001700014E02EEF3FEF38B93D91011709F43068D4
:1001800032B928B90E94CE000894221F1A9591F71F
:100190003FEF38B93F912F911F9108950F930FEFC3
:0801A0000A95F1F70F91089593
:00000001FF
